{
  "_format": "hh-sol-artifact-1",
  "contractName": "TaskContract",
  "sourceName": "contracts/TaskContract.sol",
  "abi": [
    {
      "anonymous": false,
      "inputs": [
        {
          "indexed": false,
          "internalType": "address",
          "name": "recipient",
          "type": "address"
        },
        {
          "indexed": false,
          "internalType": "uint256",
          "name": "taskId",
          "type": "uint256"
        }
      ],
      "name": "AddTask",
      "type": "event"
    },
    {
      "anonymous": false,
      "inputs": [
        {
          "indexed": false,
          "internalType": "uint256",
          "name": "taskId",
          "type": "uint256"
        },
        {
          "indexed": false,
          "internalType": "bool",
          "name": "isDeleted",
          "type": "bool"
        }
      ],
      "name": "DeleteTask",
      "type": "event"
    },
    {
      "inputs": [
        {
          "internalType": "string",
          "name": "taskText",
          "type": "string"
        },
        {
          "internalType": "enum TaskContract.Importance",
          "name": "imp",
          "type": "uint8"
        },
        {
          "internalType": "bool",
          "name": "isDeleted",
          "type": "bool"
        }
      ],
      "name": "addTask",
      "outputs": [],
      "stateMutability": "nonpayable",
      "type": "function"
    },
    {
      "inputs": [
        {
          "internalType": "uint256",
          "name": "taskId",
          "type": "uint256"
        },
        {
          "internalType": "bool",
          "name": "isDeleted",
          "type": "bool"
        }
      ],
      "name": "deleteTask",
      "outputs": [],
      "stateMutability": "nonpayable",
      "type": "function"
    },
    {
      "inputs": [],
      "name": "getMyTasks",
      "outputs": [
        {
          "components": [
            {
              "internalType": "uint256",
              "name": "id",
              "type": "uint256"
            },
            {
              "internalType": "address",
              "name": "username",
              "type": "address"
            },
            {
              "internalType": "string",
              "name": "taskText",
              "type": "string"
            },
            {
              "internalType": "enum TaskContract.Importance",
              "name": "imp",
              "type": "uint8"
            },
            {
              "internalType": "bool",
              "name": "isDeleted",
              "type": "bool"
            }
          ],
          "internalType": "struct TaskContract.Task[]",
          "name": "",
          "type": "tuple[]"
        }
      ],
      "stateMutability": "view",
      "type": "function"
    }
  ],
  "bytecode": "0x608060405234801561001057600080fd5b5061107f806100206000396000f3fe608060405234801561001057600080fd5b50600436106100415760003560e01c80636e13f81814610046578063790c84a914610064578063aaba290714610080575b600080fd5b61004e61009c565b60405161005b9190610cd9565b60405180910390f35b61007e60048036038101906100799190610a6c565b610579565b005b61009a60048036038101906100959190610ad3565b61079b565b005b60606000808054905067ffffffffffffffff8111156100e4577f4e487b7100000000000000000000000000000000000000000000000000000000600052604160045260246000fd5b60405190808252806020026020018201604052801561011d57816020015b61010a6108a3565b8152602001906001900390816101025790505b5090506000805b60008054905081101561044d573373ffffffffffffffffffffffffffffffffffffffff166001600083815260200190815260200160002060009054906101000a900473ffffffffffffffffffffffffffffffffffffffff1673ffffffffffffffffffffffffffffffffffffffff161480156101fb575060001515600082815481106101d8577f4e487b7100000000000000000000000000000000000000000000000000000000600052603260045260246000fd5b906000526020600020906004020160030160019054906101000a900460ff161515145b1561043a576000818154811061023a577f4e487b7100000000000000000000000000000000000000000000000000000000600052603260045260246000fd5b90600052602060002090600402016040518060a0016040529081600082015481526020016001820160009054906101000a900473ffffffffffffffffffffffffffffffffffffffff1673ffffffffffffffffffffffffffffffffffffffff1673ffffffffffffffffffffffffffffffffffffffff1681526020016002820180546102c390610e7e565b80601f01602080910402602001604051908101604052809291908181526020018280546102ef90610e7e565b801561033c5780601f106103115761010080835404028352916020019161033c565b820191906000526020600020905b81548152906001019060200180831161031f57829003601f168201915b505050505081526020016003820160009054906101000a900460ff166002811115610390577f4e487b7100000000000000000000000000000000000000000000000000000000600052602160045260246000fd5b60028111156103c8577f4e487b7100000000000000000000000000000000000000000000000000000000600052602160045260246000fd5b81526020016003820160019054906101000a900460ff161515151581525050838381518110610420577f4e487b7100000000000000000000000000000000000000000000000000000000600052603260045260246000fd5b6020026020010181905250818061043690610ee1565b9250505b808061044590610ee1565b915050610124565b5060008167ffffffffffffffff811115610490577f4e487b7100000000000000000000000000000000000000000000000000000000600052604160045260246000fd5b6040519080825280602002602001820160405280156104c957816020015b6104b66108a3565b8152602001906001900390816104ae5790505b50905060005b8281101561056f57838181518110610510577f4e487b7100000000000000000000000000000000000000000000000000000000600052603260045260246000fd5b6020026020010151828281518110610551577f4e487b7100000000000000000000000000000000000000000000000000000000600052603260045260246000fd5b6020026020010181905250808061056790610ee1565b9150506104cf565b5080935050505090565b60008080549050905060006040518060a001604052808381526020013373ffffffffffffffffffffffffffffffffffffffff1681526020018681526020018560028111156105f0577f4e487b7100000000000000000000000000000000000000000000000000000000600052602160045260246000fd5b815260200184151581525090806001815401808255809150506001900390600052602060002090600402016000909190919091506000820151816000015560208201518160010160006101000a81548173ffffffffffffffffffffffffffffffffffffffff021916908373ffffffffffffffffffffffffffffffffffffffff1602179055506040820151816002019080519060200190610691929190610922565b5060608201518160030160006101000a81548160ff021916908360028111156106e3577f4e487b7100000000000000000000000000000000000000000000000000000000600052602160045260246000fd5b021790555060808201518160030160016101000a81548160ff0219169083151502179055505050336001600083815260200190815260200160002060006101000a81548173ffffffffffffffffffffffffffffffffffffffff021916908373ffffffffffffffffffffffffffffffffffffffff1602179055507f1f54e1ba1832d428fbd7e7792beaf62b1fc5a382c207ffd614209c1413e94fda338260405161078d929190610cb0565b60405180910390a150505050565b3373ffffffffffffffffffffffffffffffffffffffff166001600084815260200190815260200160002060009054906101000a900473ffffffffffffffffffffffffffffffffffffffff1673ffffffffffffffffffffffffffffffffffffffff16141561089f57806000838154811061083d577f4e487b7100000000000000000000000000000000000000000000000000000000600052603260045260246000fd5b906000526020600020906004020160030160016101000a81548160ff0219169083151502179055507ff88a35c3d2016c409a46570b994a17b408dbc83c14a03f521512d50b85386d068282604051610896929190610cfb565b60405180910390a15b5050565b6040518060a0016040528060008152602001600073ffffffffffffffffffffffffffffffffffffffff1681526020016060815260200160006002811115610913577f4e487b7100000000000000000000000000000000000000000000000000000000600052602160045260246000fd5b81526020016000151581525090565b82805461092e90610e7e565b90600052602060002090601f0160209004810192826109505760008555610997565b82601f1061096957805160ff1916838001178555610997565b82800160010185558215610997579182015b8281111561099657825182559160200191906001019061097b565b5b5090506109a491906109a8565b5090565b5b808211156109c15760008160009055506001016109a9565b5090565b60006109d86109d384610d49565b610d24565b9050828152602081018484840111156109f057600080fd5b6109fb848285610e3c565b509392505050565b600081359050610a128161100b565b92915050565b600081359050610a2781611022565b92915050565b600082601f830112610a3e57600080fd5b8135610a4e8482602086016109c5565b91505092915050565b600081359050610a6681611032565b92915050565b600080600060608486031215610a8157600080fd5b600084013567ffffffffffffffff811115610a9b57600080fd5b610aa786828701610a2d565b9350506020610ab886828701610a18565b9250506040610ac986828701610a03565b9150509250925092565b60008060408385031215610ae657600080fd5b6000610af485828601610a57565b9250506020610b0585828601610a03565b9150509250929050565b6000610b1b8383610c1c565b905092915050565b610b2c81610dcf565b82525050565b610b3b81610dcf565b82525050565b6000610b4c82610d8a565b610b568185610dad565b935083602082028501610b6885610d7a565b8060005b85811015610ba45784840389528151610b858582610b0f565b9450610b9083610da0565b925060208a01995050600181019050610b6c565b50829750879550505050505092915050565b610bbf81610de1565b82525050565b610bce81610de1565b82525050565b610bdd81610e2a565b82525050565b6000610bee82610d95565b610bf88185610dbe565b9350610c08818560208601610e4b565b610c1181610fe6565b840191505092915050565b600060a083016000830151610c346000860182610c92565b506020830151610c476020860182610b23565b5060408301518482036040860152610c5f8282610be3565b9150506060830151610c746060860182610bd4565b506080830151610c876080860182610bb6565b508091505092915050565b610c9b81610e20565b82525050565b610caa81610e20565b82525050565b6000604082019050610cc56000830185610b32565b610cd26020830184610ca1565b9392505050565b60006020820190508181036000830152610cf38184610b41565b905092915050565b6000604082019050610d106000830185610ca1565b610d1d6020830184610bc5565b9392505050565b6000610d2e610d3f565b9050610d3a8282610eb0565b919050565b6000604051905090565b600067ffffffffffffffff821115610d6457610d63610fb7565b5b610d6d82610fe6565b9050602081019050919050565b6000819050602082019050919050565b600081519050919050565b600081519050919050565b6000602082019050919050565b600082825260208201905092915050565b600082825260208201905092915050565b6000610dda82610e00565b9050919050565b60008115159050919050565b6000819050610dfb82610ff7565b919050565b600073ffffffffffffffffffffffffffffffffffffffff82169050919050565b6000819050919050565b6000610e3582610ded565b9050919050565b82818337600083830152505050565b60005b83811015610e69578082015181840152602081019050610e4e565b83811115610e78576000848401525b50505050565b60006002820490506001821680610e9657607f821691505b60208210811415610eaa57610ea9610f88565b5b50919050565b610eb982610fe6565b810181811067ffffffffffffffff82111715610ed857610ed7610fb7565b5b80604052505050565b6000610eec82610e20565b91507fffffffffffffffffffffffffffffffffffffffffffffffffffffffffffffffff821415610f1f57610f1e610f2a565b5b600182019050919050565b7f4e487b7100000000000000000000000000000000000000000000000000000000600052601160045260246000fd5b7f4e487b7100000000000000000000000000000000000000000000000000000000600052602160045260246000fd5b7f4e487b7100000000000000000000000000000000000000000000000000000000600052602260045260246000fd5b7f4e487b7100000000000000000000000000000000000000000000000000000000600052604160045260246000fd5b6000601f19601f8301169050919050565b6003811061100857611007610f59565b5b50565b61101481610de1565b811461101f57600080fd5b50565b6003811061102f57600080fd5b50565b61103b81610e20565b811461104657600080fd5b5056fea26469706673582212201193cf461b84ea084bb03a08a267f84cd37180c6b469ca9e28f8fa646efec0d464736f6c63430008040033",
  "linkReferences": {},
  "deployedLinkReferences": {}
}