{
  "_format": "hh-sol-artifact-1",
  "contractName": "TaskContract",
  "sourceName": "contracts/TaskContract.sol",
  "abi": [
    {
      "inputs": [],
      "stateMutability": "nonpayable",
      "type": "constructor"
    },
    {
      "inputs": [
        {
          "internalType": "address",
          "name": "owner",
          "type": "address"
        }
      ],
      "name": "OwnableInvalidOwner",
      "type": "error"
    },
    {
      "inputs": [
        {
          "internalType": "address",
          "name": "account",
          "type": "address"
        }
      ],
      "name": "OwnableUnauthorizedAccount",
      "type": "error"
    },
    {
      "anonymous": false,
      "inputs": [
        {
          "indexed": false,
          "internalType": "address",
          "name": "recipient",
          "type": "address"
        },
        {
          "indexed": false,
          "internalType": "uint256",
          "name": "taskId",
          "type": "uint256"
        }
      ],
      "name": "AddTask",
      "type": "event"
    },
    {
      "anonymous": false,
      "inputs": [
        {
          "indexed": false,
          "internalType": "uint256",
          "name": "taskId",
          "type": "uint256"
        },
        {
          "indexed": false,
          "internalType": "bool",
          "name": "isDeleted",
          "type": "bool"
        }
      ],
      "name": "DeleteTask",
      "type": "event"
    },
    {
      "anonymous": false,
      "inputs": [
        {
          "indexed": true,
          "internalType": "address",
          "name": "previousOwner",
          "type": "address"
        },
        {
          "indexed": true,
          "internalType": "address",
          "name": "newOwner",
          "type": "address"
        }
      ],
      "name": "OwnershipTransferred",
      "type": "event"
    },
    {
      "inputs": [
        {
          "internalType": "string",
          "name": "taskText",
          "type": "string"
        },
        {
          "internalType": "enum TaskContract.Importance",
          "name": "imp",
          "type": "uint8"
        },
        {
          "internalType": "bool",
          "name": "isDeleted",
          "type": "bool"
        }
      ],
      "name": "addTask",
      "outputs": [],
      "stateMutability": "nonpayable",
      "type": "function"
    },
    {
      "inputs": [
        {
          "internalType": "uint256",
          "name": "taskId",
          "type": "uint256"
        }
      ],
      "name": "deleteTask",
      "outputs": [],
      "stateMutability": "nonpayable",
      "type": "function"
    },
    {
      "inputs": [],
      "name": "getMyTasks",
      "outputs": [
        {
          "components": [
            {
              "internalType": "uint256",
              "name": "id",
              "type": "uint256"
            },
            {
              "internalType": "address",
              "name": "username",
              "type": "address"
            },
            {
              "internalType": "string",
              "name": "taskText",
              "type": "string"
            },
            {
              "internalType": "enum TaskContract.Importance",
              "name": "importance",
              "type": "uint8"
            },
            {
              "internalType": "bool",
              "name": "isDeleted",
              "type": "bool"
            }
          ],
          "internalType": "struct TaskContract.Task[]",
          "name": "",
          "type": "tuple[]"
        }
      ],
      "stateMutability": "view",
      "type": "function"
    },
    {
      "inputs": [],
      "name": "owner",
      "outputs": [
        {
          "internalType": "address",
          "name": "",
          "type": "address"
        }
      ],
      "stateMutability": "view",
      "type": "function"
    },
    {
      "inputs": [],
      "name": "renounceOwnership",
      "outputs": [],
      "stateMutability": "nonpayable",
      "type": "function"
    },
    {
      "inputs": [
        {
          "internalType": "address",
          "name": "newOwner",
          "type": "address"
        }
      ],
      "name": "transferOwnership",
      "outputs": [],
      "stateMutability": "nonpayable",
      "type": "function"
    }
  ],
  "bytecode": "0x60806040523480156200001157600080fd5b5033600073ffffffffffffffffffffffffffffffffffffffff168173ffffffffffffffffffffffffffffffffffffffff1603620000885760006040517f1e4fbdf70000000000000000000000000000000000000000000000000000000081526004016200007f9190620001a9565b60405180910390fd5b6200009981620000a060201b60201c565b50620001c6565b60008060009054906101000a900473ffffffffffffffffffffffffffffffffffffffff169050816000806101000a81548173ffffffffffffffffffffffffffffffffffffffff021916908373ffffffffffffffffffffffffffffffffffffffff1602179055508173ffffffffffffffffffffffffffffffffffffffff168173ffffffffffffffffffffffffffffffffffffffff167f8be0079c531659141344cd1fd0a4f28419497f9722a3daafe3b4186f6b6457e060405160405180910390a35050565b600073ffffffffffffffffffffffffffffffffffffffff82169050919050565b6000620001918262000164565b9050919050565b620001a38162000184565b82525050565b6000602082019050620001c0600083018462000198565b92915050565b6113aa80620001d66000396000f3fe608060405234801561001057600080fd5b50600436106100625760003560e01c8063560f3192146100675780636e13f81814610083578063715018a6146100a1578063790c84a9146100ab5780638da5cb5b146100c7578063f2fde38b146100e5575b600080fd5b610081600480360381019061007c9190610a0f565b610101565b005b61008b6101e2565b6040516100989190610ce6565b60405180910390f35b6100a9610586565b005b6100c560048036038101906100c09190610e8e565b61059a565b005b6100cf61076a565b6040516100dc9190610f0c565b60405180910390f35b6100ff60048036038101906100fa9190610f53565b610793565b005b3373ffffffffffffffffffffffffffffffffffffffff166002600083815260200190815260200160002060009054906101000a900473ffffffffffffffffffffffffffffffffffffffff1673ffffffffffffffffffffffffffffffffffffffff16036101df57600180828154811061017c5761017b610f80565b5b906000526020600020906004020160030160016101000a81548160ff0219169083151502179055507ff88a35c3d2016c409a46570b994a17b408dbc83c14a03f521512d50b85386d068160016040516101d6929190610fcd565b60405180910390a15b50565b60606000805b6001805490508110156102ba573373ffffffffffffffffffffffffffffffffffffffff166002600083815260200190815260200160002060009054906101000a900473ffffffffffffffffffffffffffffffffffffffff1673ffffffffffffffffffffffffffffffffffffffff1614801561029357506001818154811061027257610271610f80565b5b906000526020600020906004020160030160019054906101000a900460ff16155b156102a75781806102a390611025565b9250505b80806102b290611025565b9150506101e8565b5060008167ffffffffffffffff8111156102d7576102d6610d12565b5b60405190808252806020026020018201604052801561031057816020015b6102fd61096c565b8152602001906001900390816102f55790505b5090506000805b60018054905081101561057c573373ffffffffffffffffffffffffffffffffffffffff166002600083815260200190815260200160002060009054906101000a900473ffffffffffffffffffffffffffffffffffffffff1673ffffffffffffffffffffffffffffffffffffffff161480156103c25750600181815481106103a1576103a0610f80565b5b906000526020600020906004020160030160019054906101000a900460ff16155b1561056957600181815481106103db576103da610f80565b5b90600052602060002090600402016040518060a0016040529081600082015481526020016001820160009054906101000a900473ffffffffffffffffffffffffffffffffffffffff1673ffffffffffffffffffffffffffffffffffffffff1673ffffffffffffffffffffffffffffffffffffffff1681526020016002820180546104649061109c565b80601f01602080910402602001604051908101604052809291908181526020018280546104909061109c565b80156104dd5780601f106104b2576101008083540402835291602001916104dd565b820191906000526020600020905b8154815290600101906020018083116104c057829003601f168201915b505050505081526020016003820160009054906101000a900460ff16600281111561050b5761050a610b48565b5b600281111561051d5761051c610b48565b5b81526020016003820160019054906101000a900460ff16151515158152505083838151811061054f5761054e610f80565b5b6020026020010181905250818061056590611025565b9250505b808061057490611025565b915050610317565b5081935050505090565b61058e610819565b61059860006108a0565b565b6000600180549050905060016040518060a001604052808381526020013373ffffffffffffffffffffffffffffffffffffffff1681526020018681526020018560028111156105ec576105eb610b48565b5b815260200184151581525090806001815401808255809150506001900390600052602060002090600402016000909190919091506000820151816000015560208201518160010160006101000a81548173ffffffffffffffffffffffffffffffffffffffff021916908373ffffffffffffffffffffffffffffffffffffffff16021790555060408201518160020190816106869190611279565b5060608201518160030160006101000a81548160ff021916908360028111156106b2576106b1610b48565b5b021790555060808201518160030160016101000a81548160ff0219169083151502179055505050336002600083815260200190815260200160002060006101000a81548173ffffffffffffffffffffffffffffffffffffffff021916908373ffffffffffffffffffffffffffffffffffffffff1602179055507f1f54e1ba1832d428fbd7e7792beaf62b1fc5a382c207ffd614209c1413e94fda338260405161075c92919061134b565b60405180910390a150505050565b60008060009054906101000a900473ffffffffffffffffffffffffffffffffffffffff16905090565b61079b610819565b600073ffffffffffffffffffffffffffffffffffffffff168173ffffffffffffffffffffffffffffffffffffffff160361080d5760006040517f1e4fbdf70000000000000000000000000000000000000000000000000000000081526004016108049190610f0c565b60405180910390fd5b610816816108a0565b50565b610821610964565b73ffffffffffffffffffffffffffffffffffffffff1661083f61076a565b73ffffffffffffffffffffffffffffffffffffffff161461089e57610862610964565b6040517f118cdaa70000000000000000000000000000000000000000000000000000000081526004016108959190610f0c565b60405180910390fd5b565b60008060009054906101000a900473ffffffffffffffffffffffffffffffffffffffff169050816000806101000a81548173ffffffffffffffffffffffffffffffffffffffff021916908373ffffffffffffffffffffffffffffffffffffffff1602179055508173ffffffffffffffffffffffffffffffffffffffff168173ffffffffffffffffffffffffffffffffffffffff167f8be0079c531659141344cd1fd0a4f28419497f9722a3daafe3b4186f6b6457e060405160405180910390a35050565b600033905090565b6040518060a0016040528060008152602001600073ffffffffffffffffffffffffffffffffffffffff16815260200160608152602001600060028111156109b6576109b5610b48565b5b81526020016000151581525090565b6000604051905090565b600080fd5b600080fd5b6000819050919050565b6109ec816109d9565b81146109f757600080fd5b50565b600081359050610a09816109e3565b92915050565b600060208284031215610a2557610a246109cf565b5b6000610a33848285016109fa565b91505092915050565b600081519050919050565b600082825260208201905092915050565b6000819050602082019050919050565b610a71816109d9565b82525050565b600073ffffffffffffffffffffffffffffffffffffffff82169050919050565b6000610aa282610a77565b9050919050565b610ab281610a97565b82525050565b600081519050919050565b600082825260208201905092915050565b60005b83811015610af2578082015181840152602081019050610ad7565b60008484015250505050565b6000601f19601f8301169050919050565b6000610b1a82610ab8565b610b248185610ac3565b9350610b34818560208601610ad4565b610b3d81610afe565b840191505092915050565b7f4e487b7100000000000000000000000000000000000000000000000000000000600052602160045260246000fd5b60038110610b8857610b87610b48565b5b50565b6000819050610b9982610b77565b919050565b6000610ba982610b8b565b9050919050565b610bb981610b9e565b82525050565b60008115159050919050565b610bd481610bbf565b82525050565b600060a083016000830151610bf26000860182610a68565b506020830151610c056020860182610aa9565b5060408301518482036040860152610c1d8282610b0f565b9150506060830151610c326060860182610bb0565b506080830151610c456080860182610bcb565b508091505092915050565b6000610c5c8383610bda565b905092915050565b6000602082019050919050565b6000610c7c82610a3c565b610c868185610a47565b935083602082028501610c9885610a58565b8060005b85811015610cd45784840389528151610cb58582610c50565b9450610cc083610c64565b925060208a01995050600181019050610c9c565b50829750879550505050505092915050565b60006020820190508181036000830152610d008184610c71565b905092915050565b600080fd5b600080fd5b7f4e487b7100000000000000000000000000000000000000000000000000000000600052604160045260246000fd5b610d4a82610afe565b810181811067ffffffffffffffff82111715610d6957610d68610d12565b5b80604052505050565b6000610d7c6109c5565b9050610d888282610d41565b919050565b600067ffffffffffffffff821115610da857610da7610d12565b5b610db182610afe565b9050602081019050919050565b82818337600083830152505050565b6000610de0610ddb84610d8d565b610d72565b905082815260208101848484011115610dfc57610dfb610d0d565b5b610e07848285610dbe565b509392505050565b600082601f830112610e2457610e23610d08565b5b8135610e34848260208601610dcd565b91505092915050565b60038110610e4a57600080fd5b50565b600081359050610e5c81610e3d565b92915050565b610e6b81610bbf565b8114610e7657600080fd5b50565b600081359050610e8881610e62565b92915050565b600080600060608486031215610ea757610ea66109cf565b5b600084013567ffffffffffffffff811115610ec557610ec46109d4565b5b610ed186828701610e0f565b9350506020610ee286828701610e4d565b9250506040610ef386828701610e79565b9150509250925092565b610f0681610a97565b82525050565b6000602082019050610f216000830184610efd565b92915050565b610f3081610a97565b8114610f3b57600080fd5b50565b600081359050610f4d81610f27565b92915050565b600060208284031215610f6957610f686109cf565b5b6000610f7784828501610f3e565b91505092915050565b7f4e487b7100000000000000000000000000000000000000000000000000000000600052603260045260246000fd5b610fb8816109d9565b82525050565b610fc781610bbf565b82525050565b6000604082019050610fe26000830185610faf565b610fef6020830184610fbe565b9392505050565b7f4e487b7100000000000000000000000000000000000000000000000000000000600052601160045260246000fd5b6000611030826109d9565b91507fffffffffffffffffffffffffffffffffffffffffffffffffffffffffffffffff820361106257611061610ff6565b5b600182019050919050565b7f4e487b7100000000000000000000000000000000000000000000000000000000600052602260045260246000fd5b600060028204905060018216806110b457607f821691505b6020821081036110c7576110c661106d565b5b50919050565b60008190508160005260206000209050919050565b60006020601f8301049050919050565b600082821b905092915050565b60006008830261112f7fffffffffffffffffffffffffffffffffffffffffffffffffffffffffffffffff826110f2565b61113986836110f2565b95508019841693508086168417925050509392505050565b6000819050919050565b600061117661117161116c846109d9565b611151565b6109d9565b9050919050565b6000819050919050565b6111908361115b565b6111a461119c8261117d565b8484546110ff565b825550505050565b600090565b6111b96111ac565b6111c4818484611187565b505050565b5b818110156111e8576111dd6000826111b1565b6001810190506111ca565b5050565b601f82111561122d576111fe816110cd565b611207846110e2565b81016020851015611216578190505b61122a611222856110e2565b8301826111c9565b50505b505050565b600082821c905092915050565b600061125060001984600802611232565b1980831691505092915050565b6000611269838361123f565b9150826002028217905092915050565b61128282610ab8565b67ffffffffffffffff81111561129b5761129a610d12565b5b6112a5825461109c565b6112b08282856111ec565b600060209050601f8311600181146112e357600084156112d1578287015190505b6112db858261125d565b865550611343565b601f1984166112f1866110cd565b60005b82811015611319578489015182556001820191506020850194506020810190506112f4565b868310156113365784890151611332601f89168261123f565b8355505b6001600288020188555050505b505050505050565b60006040820190506113606000830185610efd565b61136d6020830184610faf565b939250505056fea2646970667358221220180b8db55c4a89a04a1a4a67ce4842080a40ffec4ab606d4729cb761cb237d1664736f6c63430008140033",
  "linkReferences": {},
  "deployedLinkReferences": {}
}